{
  "contractName": "Escrow",
  "abi": [
    {
      "inputs": [
        {
          "internalType": "address",
          "name": "_payer",
          "type": "address"
        },
        {
          "internalType": "address payable",
          "name": "_payee",
          "type": "address"
        },
        {
          "internalType": "uint256",
          "name": "_amount",
          "type": "uint256"
        }
      ],
      "stateMutability": "nonpayable",
      "type": "constructor"
    },
    {
      "inputs": [],
      "name": "amount",
      "outputs": [
        {
          "internalType": "uint256",
          "name": "",
          "type": "uint256"
        }
      ],
      "stateMutability": "view",
      "type": "function",
      "constant": true
    },
    {
      "inputs": [],
      "name": "lawyer",
      "outputs": [
        {
          "internalType": "address",
          "name": "",
          "type": "address"
        }
      ],
      "stateMutability": "view",
      "type": "function",
      "constant": true
    },
    {
      "inputs": [],
      "name": "payee",
      "outputs": [
        {
          "internalType": "address payable",
          "name": "",
          "type": "address"
        }
      ],
      "stateMutability": "view",
      "type": "function",
      "constant": true
    },
    {
      "inputs": [],
      "name": "payer",
      "outputs": [
        {
          "internalType": "address",
          "name": "",
          "type": "address"
        }
      ],
      "stateMutability": "view",
      "type": "function",
      "constant": true
    },
    {
      "inputs": [],
      "name": "deposit",
      "outputs": [],
      "stateMutability": "payable",
      "type": "function",
      "payable": true
    },
    {
      "inputs": [],
      "name": "release",
      "outputs": [],
      "stateMutability": "nonpayable",
      "type": "function"
    },
    {
      "inputs": [],
      "name": "balanceOf",
      "outputs": [
        {
          "internalType": "uint256",
          "name": "",
          "type": "uint256"
        }
      ],
      "stateMutability": "view",
      "type": "function",
      "constant": true
    }
  ],
  "bytecode": "0x608060405234801561001057600080fd5b5060405161094c38038061094c833981810160405281019061003291906101da565b82600160006101000a81548173ffffffffffffffffffffffffffffffffffffffff021916908373ffffffffffffffffffffffffffffffffffffffff16021790555081600260006101000a81548173ffffffffffffffffffffffffffffffffffffffff021916908373ffffffffffffffffffffffffffffffffffffffff16021790555080600381905550336000806101000a81548173ffffffffffffffffffffffffffffffffffffffff021916908373ffffffffffffffffffffffffffffffffffffffff16021790555050505061022d565b600080fd5b600073ffffffffffffffffffffffffffffffffffffffff82169050919050565b600061013382610108565b9050919050565b61014381610128565b811461014e57600080fd5b50565b6000815190506101608161013a565b92915050565b600061017182610108565b9050919050565b61018181610166565b811461018c57600080fd5b50565b60008151905061019e81610178565b92915050565b6000819050919050565b6101b7816101a4565b81146101c257600080fd5b50565b6000815190506101d4816101ae565b92915050565b6000806000606084860312156101f3576101f2610103565b5b600061020186828701610151565b93505060206102128682870161018f565b9250506040610223868287016101c5565b9150509250925092565b6107108061023c6000396000f3fe6080604052600436106100705760003560e01c806386d1a69f1161004e57806386d1a69f146100f6578063aa8c217c1461010d578063ae90b21314610138578063d0e30db01461016357610070565b8063123119cd146100755780633bfb6e31146100a0578063722713f7146100cb575b600080fd5b34801561008157600080fd5b5061008a61016d565b6040516100979190610442565b60405180910390f35b3480156100ac57600080fd5b506100b5610193565b6040516100c29190610442565b60405180910390f35b3480156100d757600080fd5b506100e06101b7565b6040516100ed9190610476565b60405180910390f35b34801561010257600080fd5b5061010b6101bf565b005b34801561011957600080fd5b506101226102fe565b60405161012f9190610476565b60405180910390f35b34801561014457600080fd5b5061014d610304565b60405161015a91906104b2565b60405180910390f35b61016b61032a565b005b600160009054906101000a900473ffffffffffffffffffffffffffffffffffffffff1681565b60008054906101000a900473ffffffffffffffffffffffffffffffffffffffff1681565b600047905090565b6003544714610203576040517f08c379a00000000000000000000000000000000000000000000000000000000081526004016101fa90610550565b60405180910390fd5b60008054906101000a900473ffffffffffffffffffffffffffffffffffffffff1673ffffffffffffffffffffffffffffffffffffffff163373ffffffffffffffffffffffffffffffffffffffff1614610291576040517f08c379a0000000000000000000000000000000000000000000000000000000008152600401610288906105bc565b60405180910390fd5b600260009054906101000a900473ffffffffffffffffffffffffffffffffffffffff1673ffffffffffffffffffffffffffffffffffffffff166108fc6003549081150290604051600060405180830381858888f193505050501580156102fb573d6000803e3d6000fd5b50565b60035481565b600260009054906101000a900473ffffffffffffffffffffffffffffffffffffffff1681565b60035447111561036f576040517f08c379a00000000000000000000000000000000000000000000000000000000081526004016103669061064e565b60405180910390fd5b600160009054906101000a900473ffffffffffffffffffffffffffffffffffffffff1673ffffffffffffffffffffffffffffffffffffffff163373ffffffffffffffffffffffffffffffffffffffff16146103ff576040517f08c379a00000000000000000000000000000000000000000000000000000000081526004016103f6906106ba565b60405180910390fd5b565b600073ffffffffffffffffffffffffffffffffffffffff82169050919050565b600061042c82610401565b9050919050565b61043c81610421565b82525050565b60006020820190506104576000830184610433565b92915050565b6000819050919050565b6104708161045d565b82525050565b600060208201905061048b6000830184610467565b92915050565b600061049c82610401565b9050919050565b6104ac81610491565b82525050565b60006020820190506104c760008301846104a3565b92915050565b600082825260208201905092915050565b7f63616e6e6f742072656c656173652066756e6473206265666f72652066756c6c60008201527f20616d6f756e742069732073656e740000000000000000000000000000000000602082015250565b600061053a602f836104cd565b9150610545826104de565b604082019050919050565b600060208201905081810360008301526105698161052d565b9050919050565b7f6f6e6c79206c61777965722063616e2072656c656173652066756e6473000000600082015250565b60006105a6601d836104cd565b91506105b182610570565b602082019050919050565b600060208201905081810360008301526105d581610599565b9050919050565b7f43616e742073656e64206d6f7265207468616e20657363726f7720616d6f756e60008201527f7400000000000000000000000000000000000000000000000000000000000000602082015250565b60006106386021836104cd565b9150610643826105dc565b604082019050919050565b600060208201905081810360008301526106678161062b565b9050919050565b7f53656e646572206d757374206265207061796572000000000000000000000000600082015250565b60006106a46014836104cd565b91506106af8261066e565b602082019050919050565b600060208201905081810360008301526106d381610697565b905091905056fea26469706673582212205a3a772d76416680b0b7b89ba92b6811376b1383fb1b12cf81f06717f71a9b6064736f6c634300080b0033",
  "immutableReferences": {},
  "source": "// SPDX-License-Identifier: MIT\npragma solidity ^0.8.0;\n\ncontract Escrow {\n    address public lawyer;\n    address public payer;\n    address payable public payee;\n    uint256 public amount;\n\n    constructor(\n        address _payer,\n        address payable _payee,\n        uint256 _amount\n    ) {\n        payer = _payer;\n        payee = _payee;\n        amount = _amount;\n        lawyer = msg.sender;\n    }\n\n    function deposit() external payable {\n        require(\n            address(this).balance <= amount,\n            \"Cant send more than escrow amount\"\n        );\n        require(msg.sender == payer, \"Sender must be payer\");\n    }\n\n    function release() external {\n        require(\n            address(this).balance == amount,\n            \"cannot release funds before full amount is sent\"\n        );\n        require(msg.sender == lawyer, \"only lawyer can release funds\");\n        payee.transfer(amount);\n    }\n\n    function balanceOf() external view returns (uint256) {\n        return address(this).balance;\n    }\n}\n",
  "sourcePath": "/Users/m/Desktop/dev/web3/Escrow_2/simple-escrow/contracts/Escrow.sol",
  "compiler": {
    "name": "solc",
    "version": "0.8.11+commit.d7f03943.Emscripten.clang"
  },
  "schemaVersion": "3.4.3",
  "updatedAt": "2021-12-25T20:59:22.137Z",
  "networkType": "ethereum",
  "devdoc": {
    "kind": "dev",
    "methods": {},
    "version": 1
  },
  "userdoc": {
    "kind": "user",
    "methods": {},
    "version": 1
  }
}